{
  "contractName": "Channel",
  "abi": [
    {
      "constant": true,
      "inputs": [],
      "name": "channelRecipient",
      "outputs": [
        {
          "name": "",
          "type": "address"
        }
      ],
      "payable": false,
      "stateMutability": "view",
      "type": "function"
    },
    {
      "constant": true,
      "inputs": [],
      "name": "channelSender",
      "outputs": [
        {
          "name": "",
          "type": "address"
        }
      ],
      "payable": false,
      "stateMutability": "view",
      "type": "function"
    },
    {
      "constant": true,
      "inputs": [],
      "name": "startDate",
      "outputs": [
        {
          "name": "",
          "type": "uint256"
        }
      ],
      "payable": false,
      "stateMutability": "view",
      "type": "function"
    },
    {
      "constant": true,
      "inputs": [],
      "name": "channelTimeout",
      "outputs": [
        {
          "name": "",
          "type": "uint256"
        }
      ],
      "payable": false,
      "stateMutability": "view",
      "type": "function"
    },
    {
      "inputs": [
        {
          "name": "to",
          "type": "address"
        },
        {
          "name": "timeout",
          "type": "uint256"
        }
      ],
      "payable": true,
      "stateMutability": "payable",
      "type": "constructor"
    },
    {
      "constant": false,
      "inputs": [
        {
          "name": "h",
          "type": "bytes32"
        },
        {
          "name": "v",
          "type": "uint8"
        },
        {
          "name": "r",
          "type": "bytes32"
        },
        {
          "name": "s",
          "type": "bytes32"
        },
        {
          "name": "value",
          "type": "uint256"
        }
      ],
      "name": "CloseChannel",
      "outputs": [],
      "payable": false,
      "stateMutability": "nonpayable",
      "type": "function"
    },
    {
      "constant": false,
      "inputs": [],
      "name": "ChannelTimeout",
      "outputs": [],
      "payable": false,
      "stateMutability": "nonpayable",
      "type": "function"
    },
    {
      "constant": true,
      "inputs": [
        {
          "name": "msgHash",
          "type": "bytes32"
        },
        {
          "name": "v",
          "type": "uint8"
        },
        {
          "name": "r",
          "type": "bytes32"
        },
        {
          "name": "s",
          "type": "bytes32"
        }
      ],
      "name": "ecrecover1",
      "outputs": [
        {
          "name": "",
          "type": "address"
        }
      ],
      "payable": false,
      "stateMutability": "view",
      "type": "function"
    },
    {
      "constant": true,
      "inputs": [
        {
          "name": "hash",
          "type": "bytes32"
        },
        {
          "name": "v",
          "type": "uint8"
        },
        {
          "name": "r",
          "type": "bytes32"
        },
        {
          "name": "s",
          "type": "bytes32"
        }
      ],
      "name": "verify",
      "outputs": [
        {
          "name": "",
          "type": "bool"
        }
      ],
      "payable": false,
      "stateMutability": "view",
      "type": "function"
    }
  ],
  "bytecode": "0x6060604052604051604080610ae08339810160405280805190602001909190805190602001909190505081600160006101000a81548173ffffffffffffffffffffffffffffffffffffffff021916908373ffffffffffffffffffffffffffffffffffffffff160217905550336000806101000a81548173ffffffffffffffffffffffffffffffffffffffff021916908373ffffffffffffffffffffffffffffffffffffffff16021790555042600281905550806003819055505050610a17806100c96000396000f30060606040526004361061008e576000357c0100000000000000000000000000000000000000000000000000000000900463ffffffff16806304758e7914610093578063075aa0c4146100e85780630b97bc861461013d5780632ef2d55e14610166578063396582451461018f5780635b209615146101a4578063adacb0fa14610231578063f1835db714610287575b600080fd5b341561009e57600080fd5b6100a66102ec565b604051808273ffffffffffffffffffffffffffffffffffffffff1673ffffffffffffffffffffffffffffffffffffffff16815260200191505060405180910390f35b34156100f357600080fd5b6100fb610312565b604051808273ffffffffffffffffffffffffffffffffffffffff1673ffffffffffffffffffffffffffffffffffffffff16815260200191505060405180910390f35b341561014857600080fd5b610150610337565b6040518082815260200191505060405180910390f35b341561017157600080fd5b61017961033d565b6040518082815260200191505060405180910390f35b341561019a57600080fd5b6101a2610343565b005b34156101af57600080fd5b6101ef60048080356000191690602001909190803560ff169060200190919080356000191690602001909190803560001916906020019091905050610390565b604051808273ffffffffffffffffffffffffffffffffffffffff1673ffffffffffffffffffffffffffffffffffffffff16815260200191505060405180910390f35b341561023c57600080fd5b61028560048080356000191690602001909190803560ff1690602001909190803560001916906020019091908035600019169060200190919080359060200190919050506104dc565b005b341561029257600080fd5b6102d260048080356000191690602001909190803560ff16906020019091908035600019169060200190919080356000191690602001909190505061085d565b604051808215151515815260200191505060405180910390f35b600160009054906101000a900473ffffffffffffffffffffffffffffffffffffffff1681565b6000809054906101000a900473ffffffffffffffffffffffffffffffffffffffff1681565b60025481565b60035481565b4260035460025401111561035657600080fd5b6000809054906101000a900473ffffffffffffffffffffffffffffffffffffffff1673ffffffffffffffffffffffffffffffffffffffff16ff5b600061039a6109d7565b60006040805190810160405280601c81526020017f19457468657265756d205369676e6564204d6573736167653a0a333200000000815250915081876040518083805190602001908083835b60208310151561040b57805182526020820191506020810190506020830392506103e6565b6001836020036101000a03801982511681845116808217855250505050505090500182600019166000191681526020019250505060405180910390209050600181878787604051600081526020016040526000604051602001526040518085600019166000191681526020018460ff1660ff16815260200183600019166000191681526020018260001916600019168152602001945050505050602060405160208103908084039060008661646e5a03f115156104c757600080fd5b50506020604051035192505050949350505050565b600080600187878787604051600081526020016040526000604051602001526040518085600019166000191681526020018460ff1660ff16815260200183600019166000191681526020018260001916600019168152602001945050505050602060405160208103908084039060008661646e5a03f1151561055d57600080fd5b50506020604051035191506000809054906101000a900473ffffffffffffffffffffffffffffffffffffffff1673ffffffffffffffffffffffffffffffffffffffff168273ffffffffffffffffffffffffffffffffffffffff16141580156106135750600160009054906101000a900473ffffffffffffffffffffffffffffffffffffffff1673ffffffffffffffffffffffffffffffffffffffff168273ffffffffffffffffffffffffffffffffffffffff1614155b1561061d57600080fd5b3083604051808373ffffffffffffffffffffffffffffffffffffffff1673ffffffffffffffffffffffffffffffffffffffff166c0100000000000000000000000002815260140182815260200192505050604051809103902090508660001916816000191614151561068e57600080fd5b600060046000836000191660001916815260200190815260200160002060009054906101000a900473ffffffffffffffffffffffffffffffffffffffff1673ffffffffffffffffffffffffffffffffffffffff161415610747578160046000836000191660001916815260200190815260200160002060006101000a81548173ffffffffffffffffffffffffffffffffffffffff021916908373ffffffffffffffffffffffffffffffffffffffff160217905550610854565b8173ffffffffffffffffffffffffffffffffffffffff1660046000836000191660001916815260200190815260200160002060009054906101000a900473ffffffffffffffffffffffffffffffffffffffff1673ffffffffffffffffffffffffffffffffffffffff1614151561085357600160009054906101000a900473ffffffffffffffffffffffffffffffffffffffff1673ffffffffffffffffffffffffffffffffffffffff166108fc849081150290604051600060405180830381858888f19350505050151561081957600080fd5b6000809054906101000a900473ffffffffffffffffffffffffffffffffffffffff1673ffffffffffffffffffffffffffffffffffffffff16ff5b5b50505050505050565b60006108676109d7565b60006040805190810160405280601c81526020017f19457468657265756d205369676e6564204d6573736167653a0a333200000000815250915081876040518083805190602001908083835b6020831015156108d857805182526020820191506020810190506020830392506108b3565b6001836020036101000a038019825116818451168082178552505050505050905001826000191660001916815260200192505050604051809103902090503373ffffffffffffffffffffffffffffffffffffffff16600182888888604051600081526020016040526000604051602001526040518085600019166000191681526020018460ff1660ff16815260200183600019166000191681526020018260001916600019168152602001945050505050602060405160208103908084039060008661646e5a03f115156109ab57600080fd5b50506020604051035173ffffffffffffffffffffffffffffffffffffffff161492505050949350505050565b6020604051908101604052806000815250905600a165627a7a72305820234219181944a293f67918971629bed328ce01792f0fe5e3c2e1160bacb4bbb20029",
  "source": "pragma solidity ^0.4.17;\r\n\r\ncontract Channel {\r\n\r\n\taddress public channelSender;\r\n\taddress public channelRecipient;\r\n\tuint public startDate;\r\n\tuint public channelTimeout;\r\n\tmapping (bytes32 => address) signatures;\r\n\r\n\tfunction Channel(address to, uint timeout) payable {\r\n\t\tchannelRecipient = to;\r\n\t\tchannelSender = msg.sender;\r\n\t\tstartDate = now;\r\n\t\tchannelTimeout = timeout;\r\n\t}\r\n\r\n\tfunction CloseChannel(bytes32 h, uint8 v, bytes32 r, bytes32 s, uint value){\r\n\r\n\t\taddress signer;\r\n\t\tbytes32 proof;\r\n\r\n\t\t// get signer from signature\r\n\t\tsigner = ecrecover(h, v, r, s);\r\n\r\n\t\t// signature is invalid, throw\r\n\t\tif (signer != channelSender && signer != channelRecipient) throw;\r\n\r\n\t\tproof = sha3(this, value);\r\n\r\n\t\t// signature is valid but doesn't match the data provided\r\n\t\tif (proof != h) throw;\r\n\r\n\t\tif (signatures[proof] == 0)\r\n\t\t\tsignatures[proof] = signer;\r\n\t\telse if (signatures[proof] != signer){\r\n\t\t\t// channel completed, both signatures provided\r\n\t\t\tif (!channelRecipient.send(value)) throw;\r\n\t\t\tselfdestruct(channelSender);\r\n\t\t}\r\n\r\n\t}\r\n\r\n\tfunction ChannelTimeout(){\r\n\t\tif (startDate + channelTimeout > now)\r\n\t\t\tthrow;\r\n\r\n\t\tselfdestruct(channelSender);\r\n\t}\r\n\t\r\n\t\r\n\tfunction ecrecover1(bytes32 msgHash, uint8 v, bytes32 r, bytes32 s) constant returns(address) {\r\n      bytes memory prefix = \"\\x19Ethereum Signed Message:\\n32\";\r\n      bytes32 prefixedHash = keccak256(prefix, msgHash);\r\n      return ecrecover(prefixedHash, v, r, s);\r\n  }\r\n\t\r\n\tfunction verify(bytes32 hash, uint8 v, bytes32 r, bytes32 s) constant returns(bool) {\r\n\r\n        bytes memory prefix = \"\\x19Ethereum Signed Message:\\n32\";\r\n        bytes32 prefixedHash = keccak256(prefix, hash);\r\n        return ecrecover(prefixedHash, v, r, s) == (msg.sender);\r\n    }\r\n\r\n}",
  "sourcePath": "/home/ubuntu/state_channel/myproject/contracts/channel.sol",
  "compiler": {
    "name": "solc",
    "version": "0.4.19+commit.c4cbbb05.Emscripten.clang"
  },
  "schemaVersion": "1.0.1",
  "updatedAt": "2018-02-08T16:38:34.846Z"
}