{
  "contractName": "Channel",
  "abi": [
    {
      "constant": true,
      "inputs": [],
      "name": "channelSender",
      "outputs": [
        {
          "name": "",
          "type": "address"
        }
      ],
      "payable": false,
      "stateMutability": "view",
      "type": "function"
    },
    {
      "constant": true,
      "inputs": [],
      "name": "startDate",
      "outputs": [
        {
          "name": "",
          "type": "uint256"
        }
      ],
      "payable": false,
      "stateMutability": "view",
      "type": "function"
    },
    {
      "constant": true,
      "inputs": [],
      "name": "maxcalls",
      "outputs": [
        {
          "name": "",
          "type": "uint256"
        }
      ],
      "payable": false,
      "stateMutability": "view",
      "type": "function"
    },
    {
      "constant": true,
      "inputs": [
        {
          "name": "",
          "type": "bytes32"
        }
      ],
      "name": "signatures",
      "outputs": [
        {
          "name": "",
          "type": "address"
        }
      ],
      "payable": false,
      "stateMutability": "view",
      "type": "function"
    },
    {
      "constant": true,
      "inputs": [
        {
          "name": "",
          "type": "address"
        }
      ],
      "name": "allowance",
      "outputs": [
        {
          "name": "",
          "type": "uint8"
        }
      ],
      "payable": false,
      "stateMutability": "view",
      "type": "function"
    },
    {
      "constant": true,
      "inputs": [],
      "name": "value",
      "outputs": [
        {
          "name": "",
          "type": "uint256"
        }
      ],
      "payable": false,
      "stateMutability": "view",
      "type": "function"
    },
    {
      "constant": true,
      "inputs": [],
      "name": "max",
      "outputs": [
        {
          "name": "",
          "type": "uint256"
        }
      ],
      "payable": false,
      "stateMutability": "view",
      "type": "function"
    },
    {
      "constant": true,
      "inputs": [],
      "name": "timeout",
      "outputs": [
        {
          "name": "",
          "type": "uint256"
        }
      ],
      "payable": false,
      "stateMutability": "view",
      "type": "function"
    },
    {
      "inputs": [
        {
          "name": "_value",
          "type": "uint256"
        },
        {
          "name": "_timeout",
          "type": "uint256"
        },
        {
          "name": "_max",
          "type": "uint256"
        }
      ],
      "payable": false,
      "stateMutability": "nonpayable",
      "type": "constructor"
    },
    {
      "anonymous": false,
      "inputs": [
        {
          "indexed": false,
          "name": "",
          "type": "bytes32"
        }
      ],
      "name": "show_hash",
      "type": "event"
    },
    {
      "anonymous": false,
      "inputs": [
        {
          "indexed": false,
          "name": "",
          "type": "string"
        }
      ],
      "name": "exceeded_max_allowed",
      "type": "event"
    },
    {
      "anonymous": false,
      "inputs": [
        {
          "indexed": false,
          "name": "",
          "type": "string"
        }
      ],
      "name": "show_stateHouse",
      "type": "event"
    },
    {
      "constant": false,
      "inputs": [
        {
          "name": "_ad",
          "type": "address"
        },
        {
          "name": "_hash",
          "type": "bytes32"
        }
      ],
      "name": "reserve",
      "outputs": [],
      "payable": false,
      "stateMutability": "nonpayable",
      "type": "function"
    },
    {
      "constant": false,
      "inputs": [
        {
          "name": "hash",
          "type": "bytes32"
        },
        {
          "name": "v",
          "type": "uint8"
        },
        {
          "name": "r",
          "type": "bytes32"
        },
        {
          "name": "s",
          "type": "bytes32"
        },
        {
          "name": "_value",
          "type": "uint256"
        }
      ],
      "name": "open_channel",
      "outputs": [],
      "payable": true,
      "stateMutability": "payable",
      "type": "function"
    },
    {
      "constant": false,
      "inputs": [],
      "name": "is_allowed",
      "outputs": [
        {
          "name": "",
          "type": "bool"
        }
      ],
      "payable": false,
      "stateMutability": "nonpayable",
      "type": "function"
    },
    {
      "constant": false,
      "inputs": [
        {
          "name": "h",
          "type": "bytes32"
        },
        {
          "name": "v",
          "type": "uint8"
        },
        {
          "name": "r",
          "type": "bytes32"
        },
        {
          "name": "s",
          "type": "bytes32"
        },
        {
          "name": "value",
          "type": "uint256"
        }
      ],
      "name": "CloseChannel",
      "outputs": [],
      "payable": false,
      "stateMutability": "nonpayable",
      "type": "function"
    },
    {
      "constant": false,
      "inputs": [],
      "name": "ChannelTimeout",
      "outputs": [],
      "payable": false,
      "stateMutability": "nonpayable",
      "type": "function"
    },
    {
      "constant": true,
      "inputs": [
        {
          "name": "hash",
          "type": "bytes32"
        },
        {
          "name": "v",
          "type": "uint8"
        },
        {
          "name": "r",
          "type": "bytes32"
        },
        {
          "name": "s",
          "type": "bytes32"
        }
      ],
      "name": "verify",
      "outputs": [
        {
          "name": "",
          "type": "address"
        }
      ],
      "payable": false,
      "stateMutability": "view",
      "type": "function"
    }
  ],
  "bytecode": "0x60606040526000600355341561001457600080fd5b604051606080610dc78339810160405280805190602001909190805190602001909190805190602001909190505082600281905550816004819055508060058190555042600181905550336000806101000a81548173ffffffffffffffffffffffffffffffffffffffff021916908373ffffffffffffffffffffffffffffffffffffffff160217905550505050610d17806100b06000396000f3006060604052600436106100d0576000357c0100000000000000000000000000000000000000000000000000000000900463ffffffff168063075aa0c4146100d55780630b97bc861461012a5780631df4f796146101535780632422224e1461017c57806339658245146101e35780633e5beab9146101f85780633fa4f2451461025357806365adf6421461027c5780636ac5db19146102c757806370dea79a146102f0578063897a691d14610319578063acc0101814610346578063adacb0fa1461038c578063f1835db7146103e2575b600080fd5b34156100e057600080fd5b6100e861046f565b604051808273ffffffffffffffffffffffffffffffffffffffff1673ffffffffffffffffffffffffffffffffffffffff16815260200191505060405180910390f35b341561013557600080fd5b61013d610494565b6040518082815260200191505060405180910390f35b341561015e57600080fd5b61016661049a565b6040518082815260200191505060405180910390f35b341561018757600080fd5b6101a16004808035600019169060200190919050506104a0565b604051808273ffffffffffffffffffffffffffffffffffffffff1673ffffffffffffffffffffffffffffffffffffffff16815260200191505060405180910390f35b34156101ee57600080fd5b6101f66104d3565b005b341561020357600080fd5b61022f600480803573ffffffffffffffffffffffffffffffffffffffff16906020019091905050610520565b6040518082600281111561023f57fe5b60ff16815260200191505060405180910390f35b341561025e57600080fd5b610266610540565b6040518082815260200191505060405180910390f35b6102c560048080356000191690602001909190803560ff169060200190919080356000191690602001909190803560001916906020019091908035906020019091905050610546565b005b34156102d257600080fd5b6102da6106fe565b6040518082815260200191505060405180910390f35b34156102fb57600080fd5b610303610704565b6040518082815260200191505060405180910390f35b341561032457600080fd5b61032c61070a565b604051808215151515815260200191505060405180910390f35b341561035157600080fd5b61038a600480803573ffffffffffffffffffffffffffffffffffffffff1690602001909190803560001916906020019091905050610822565b005b341561039757600080fd5b6103e060048080356000191690602001909190803560ff1690602001909190803560001916906020019091908035600019169060200190919080359060200190919050506108ab565b005b34156103ed57600080fd5b61042d60048080356000191690602001909190803560ff169060200190919080356000191690602001909190803560001916906020019091905050610b8b565b604051808273ffffffffffffffffffffffffffffffffffffffff1673ffffffffffffffffffffffffffffffffffffffff16815260200191505060405180910390f35b6000809054906101000a900473ffffffffffffffffffffffffffffffffffffffff1681565b60015481565b60035481565b60086020528060005260406000206000915054906101000a900473ffffffffffffffffffffffffffffffffffffffff1681565b426004546001540111156104e657600080fd5b6000809054906101000a900473ffffffffffffffffffffffffffffffffffffffff1673ffffffffffffffffffffffffffffffffffffffff16ff5b60076020528060005260406000206000915054906101000a900460ff1681565b60025481565b600060055460035410156106f6576001600281111561056157fe5b600760003373ffffffffffffffffffffffffffffffffffffffff1673ffffffffffffffffffffffffffffffffffffffff16815260200190815260200160002060009054906101000a900460ff1660028111156105b957fe5b1480156105c557503482145b801561060757503373ffffffffffffffffffffffffffffffffffffffff166105ef87878787610b8b565b73ffffffffffffffffffffffffffffffffffffffff16145b156106f55760028081111561061857fe5b600760003373ffffffffffffffffffffffffffffffffffffffff1673ffffffffffffffffffffffffffffffffffffffff16815260200190815260200160002060009054906101000a900460ff16600281111561067057fe5b5050600360008154809291906001019190505550813073ffffffffffffffffffffffffffffffffffffffff163101905060055460035414156106f4576002548114156106df576001600660006101000a81548160ff021916908360028111156106d557fe5b02179055506106f3565b600360008154809291906001900391905055505b5b5b5b505050505050565b60055481565b60045481565b60006001600281111561071957fe5b600660009054906101000a900460ff16600281111561073457fe5b14156107b65760028081111561074657fe5b600760003373ffffffffffffffffffffffffffffffffffffffff1673ffffffffffffffffffffffffffffffffffffffff16815260200190815260200160002060009054906101000a900460ff16600281111561079e57fe5b14156107ad576001905061081f565b6000905061081f565b7f46a0820357f13296ffade10cf6475de9872caa15a487cd97b3bc6c3f4e0275ee6040518080602001828103825260188152602001807f7468697320686f757365206973206e6f742072656e746564000000000000000081525060200191505060405180910390a15b90565b6001600760008473ffffffffffffffffffffffffffffffffffffffff1673ffffffffffffffffffffffffffffffffffffffff16815260200190815260200160002060006101000a81548160ff0219169083600281111561087e57fe5b02179055506002600660006101000a81548160ff021916908360028111156108a257fe5b02179055505050565b6000806108ba87878787610b8b565b91506002808111156108c857fe5b600760008473ffffffffffffffffffffffffffffffffffffffff1673ffffffffffffffffffffffffffffffffffffffff16815260200190815260200160002060009054906101000a900460ff16600281111561092057fe5b1415801561097b57506000809054906101000a900473ffffffffffffffffffffffffffffffffffffffff1673ffffffffffffffffffffffffffffffffffffffff168273ffffffffffffffffffffffffffffffffffffffff1614155b1561098557600080fd5b3083604051808373ffffffffffffffffffffffffffffffffffffffff1673ffffffffffffffffffffffffffffffffffffffff166c010000000000000000000000000281526014018281526020019250505060405180910390209050866000191681600019161415156109f657600080fd5b600060086000836000191660001916815260200190815260200160002060009054906101000a900473ffffffffffffffffffffffffffffffffffffffff1673ffffffffffffffffffffffffffffffffffffffff161415610aaf578160086000836000191660001916815260200190815260200160002060006101000a81548173ffffffffffffffffffffffffffffffffffffffff021916908373ffffffffffffffffffffffffffffffffffffffff160217905550610b82565b8173ffffffffffffffffffffffffffffffffffffffff1660086000836000191660001916815260200190815260200160002060009054906101000a900473ffffffffffffffffffffffffffffffffffffffff1673ffffffffffffffffffffffffffffffffffffffff16141515610b81576000809054906101000a900473ffffffffffffffffffffffffffffffffffffffff1673ffffffffffffffffffffffffffffffffffffffff166108fc849081150290604051600060405180830381858888f193505050501515610b8057600080fd5b5b5b50505050505050565b6000610b95610cd7565b60006040805190810160405280601c81526020017f19457468657265756d205369676e6564204d6573736167653a0a333200000000815250915081876040518083805190602001908083835b602083101515610c065780518252602082019150602081019050602083039250610be1565b6001836020036101000a03801982511681845116808217855250505050505090500182600019166000191681526020019250505060405180910390209050600181878787604051600081526020016040526000604051602001526040518085600019166000191681526020018460ff1660ff16815260200183600019166000191681526020018260001916600019168152602001945050505050602060405160208103908084039060008661646e5a03f11515610cc257600080fd5b50506020604051035192505050949350505050565b6020604051908101604052806000815250905600a165627a7a72305820e58d7f6374598a995c62a2f8b74345a6c10832ba8527e88b67663e4d3d4a65cb0029",
  "source": "pragma solidity ^0.4.17;\n\ncontract Channel {\n\n\taddress public channelSender;\n\tuint public startDate;\n\tuint public value;\n\tuint public maxcalls =0;\n\tuint public timeout;\n\tuint public max;\n\t\n\tenum House { available , rented, reserved }\n\tHouse stateHouse;\n\tenum existsNot { donotexist, pending , allowed }\n\t\n\tmapping(address => existsNot) public allowance;   // Who is allowed to access house\n\tmapping (bytes32 => address) public signatures;\n\t\n\tevent show_hash(bytes32);\n\tevent exceeded_max_allowed(string);\n\tevent show_stateHouse(string);\n\n\n\t\n\tfunction Channel(uint _value, uint _timeout, uint _max)public {\n\t    value = _value;\n\t    timeout = _timeout;\n\t    max = _max;\n\t    startDate = now;\n\t    channelSender = msg.sender;\n\t    \n\t}\n\t\n\t\n\tfunction reserve(address _ad,bytes32 _hash ) public {\n\t   \n\t  \n\t        allowance[_ad] = existsNot.pending;\n\t        //show_hash(_hash);\n\t        stateHouse = House.reserved;\n\t      //  show_stateHouse(\"stateHouse is reserved\");\n\t}\n\t\n    \t\n    function open_channel(bytes32 hash, uint8 v , bytes32 r , bytes32 s , uint _value) payable {\n      uint somme;\n      if(maxcalls<max){\n          \n         // somme += msg.value;\n             // verify if the one who called the function is someone in the mapping and has put the exact value he said he would put\n        if((allowance[msg.sender] == existsNot.pending) && (_value == msg.value) && (verify(hash,v,r,s)==msg.sender)){\n                allowance[msg.sender] == existsNot.allowed; // grant access\n                maxcalls ++;\n                somme = this.balance + _value;\n                 if (maxcalls == max){\n                     if( somme == value){\n                           stateHouse = House.rented;}\n                           else{\n                               // value not met \n                               maxcalls--;\n                           }\n              \n                 }\n                \n             }\n             \n      }\n      \n     \n    }\n    \n    \n    \n        function is_allowed()public returns(bool) {\n            if(stateHouse == House.rented){\n                if(allowance[msg.sender] == existsNot.allowed){\n                    return true;\n                }\n                else{\n                    return false;\n                }\n            \n            }else{\n                show_stateHouse(\"this house is not rented\");\n            }\n            \n        }\n\n\n\t\n\tfunction CloseChannel(bytes32 h, uint8 v, bytes32 r, bytes32 s, uint value){\n\n        address signer;\n        bytes32 proof;\n        \n        // get signer from signature\n        signer = verify(h, v, r, s);\n        \n        // signature is invalid, throw\n        if (allowance[signer] !=  existsNot.allowed && signer != channelSender) throw;\n        \n        proof = sha3(this, value);\n        \n        // signature is valid but doesn't match the data provided\n        if (proof != h) throw;\n        \n        if (signatures[proof] == 0)\n            signatures[proof] = signer;\n        else if (signatures[proof] != signer){\n        // channel completed, both signatures provided\n            if (!channelSender.send(value)) throw;\n        \n        }\n\n}\n\n\tfunction ChannelTimeout(){\n\t\tif (startDate + timeout > now)\n\t\t\tthrow;\n\n\t\tselfdestruct(channelSender);\n\t}\n\t\n\n\n\tfunction verify(bytes32 hash, uint8 v, bytes32 r, bytes32 s)  constant returns(address) {\n\n        bytes memory prefix = \"\\x19Ethereum Signed Message:\\n32\";\n        bytes32 prefixedHash = keccak256(prefix, hash);\n        return ecrecover(prefixedHash, v, r, s);\n    }\n\n}",
  "sourcePath": "/home/sahar/Documents/workspace/airbnb/Airbnb_Blockchain_test/myproject/contracts/Channel.sol",
  "compiler": {
    "name": "solc",
    "version": "0.4.19+commit.c4cbbb05.Emscripten.clang"
  },
  "schemaVersion": "1.0.1",
  "updatedAt": "2018-02-11T20:09:59.776Z"
}